:100000000C94A8000C94D0000C94D0000C94D00058
:100010000C94D0000C94D0000C94D0000C94D00020
:100020000C94D0000C94D0000C94D0000C94D00010
:100030000C94D0000C94D0000C94D0000C94D00000
:100040000C94BD070C94D0000C942D080C94070858
:100050000C94D0000C94D0000C94D0000C94D000E0
:100060000C94D0000C94D000036EDB363D9A999925
:10007000993DABAAAA2A3E000000803F084AD73B20
:100080003BCE016E84BCBFFDC12F3D6C74319ABD67
:1000900056833DDA3D00C77F11BED9E4BB4C3E918B
:1000A0006BAAAABE000000803F072C7AA5BA6CC5D7
:1000B00090DA3B9365FC8BBC53F810FD3C56928361
:1000C0004DBD879D3AB63DCBC9BF5BBE73DA0FC944
:1000D0003F05A84CCDB2D44EB93836A9020C50B960
:1000E000918688083CA6AAAA2ABE000000803F0686
:1000F00064EC1B3C04BC163E3BE5B93CC93C37C232
:100100009E5A3D660498083EEA69AAAA3E0000008D
:10011000803F53756E4D6F6E5475655765645468B6
:1001200075467269536174004A616E4665624D613D
:10013000724170724D61794A756E4A756C4175678E
:100140005365704F63744E6F7644656300003E0BD9
:1001500011241FBECFEFD8E0DEBFCDBF14E0A0E07A
:10016000B1E0E8E9F8E302C005900D92A637B107C7
:10017000D9F725E0A6E7B4E001C01D92A83CB2077C
:10018000E1F710E0C8EAD0E004C02197FE010E9428
:10019000B117C73AD107C9F70E949B0B0C944A1CB0
:1001A0000C940000AF92BF92CF92DF92EF92FF9239
:1001B0000F931F93CF93DF936C017B018B01040F8F
:1001C000151FEB015E01AE18BF08C017D10759F02B
:1001D0006991D601ED91FC910190F081E02DC6016D
:1001E0000995892B79F7C501DF91CF911F910F9167
:1001F000FF90EF90DF90CF90BF90AF900895FC01FB
:10020000538D448D252F30E0842F90E0821B930B7B
:10021000541710F0CF96089501970895FC01918D21
:10022000828D981761F0A28DAE0FBF2FB11D5D9624
:100230008C91928D9F5F9F73928F90E008958FEFC6
:100240009FEF0895FC01918D828D981731F0828D7A
:10025000E80FF11D858D90E008958FEF9FEF0895D1
:10026000FC01918D228D892F90E0805C9F4F821B35
:1002700091098F739927089589E994E00E943001CC
:1002800021E0892B09F420E0822F089580E090E09E
:10029000892B29F00E943C0181110C9400000895E3
:1002A000FC01A48DA80FB92FB11DA35ABF4F2C91EB
:1002B000848D90E001968F739927848FA689B789E2
:1002C0002C93A089B1898C91837080648C93938DD9
:1002D000848D981306C00288F389E02D80818F7D7C
:1002E00080830895EF92FF920F931F93CF93DF9334
:1002F000EC0181E0888F9B8D8C8D98131AC0E88962
:10030000F989808185FF15C09FB7F894EE89FF8930
:100310006083E889F98980818370806480839FBFCE
:1003200081E090E0DF91CF911F910F91FF90EF90CE
:100330000895F62E0B8D10E00F5F1F4F0F731127DE
:10034000E02E8C8D8E110CC00FB607FCFACFE88919
:10035000F989808185FFF5CFCE010E945001F1CF50
:10036000EB8DEC0FFD2FF11DE35AFF4FF0829FB78D
:10037000F8940B8FEA89FB8980818062CFCFCF937D
:10038000DF93EC01888D8823B9F0AA89BB89E889BD
:10039000F9898C9185FD03C0808186FD0DC00FB663
:1003A00007FCF7CF8C9185FFF2CF808185FFEDCFE1
:1003B000CE010E945001E9CFDF91CF9108952091A5
:1003C0007604309177042230310559F0233031051D
:1003D00069F02130310589F460E070E080E09FE34E
:1003E000089565E279E482E19EE3089520E030E03B
:1003F00040E752E40E948715089560E070E0CB0169
:100400000895CF92DF92EF92FF926B017C0120E082
:1004100030E044EB53E40E9487150E942F1620E041
:1004200030E044EB53E40E94E8129B01AC01C701A9
:10043000B6010E9488146B017C0120E030E0A90124
:100440000E94821287FF0AC020E030E044EB53E4B0
:10045000C701B6010E9489146B017C01C701B60176
:10046000FF90EF90DF90CF900895CF92DF92EF92C0
:10047000FF926B017C0120E030E040EC51E40E94EF
:1004800087150E942F1620E030E040EC51E40E94D6
:10049000E8129B01AC01C701B6010E9488146B01F0
:1004A0007C0120E030E0A9010E94821287FF0AC08F
:1004B00020E030E040EC51E4C701B6010E9489140D
:1004C0006B017C01C701B601FF90EF90DF90CF90E8
:1004D0000895FC0101900020E9F73197AF01481B16
:1004E000590BBC0189E994E00C94D2008F929F9241
:1004F000AF92BF920F931F93CF93DF93CDB7DEB729
:10050000A1970FB6F894DEBF0FBECDBF19A242303F
:1005100008F44AE08E010F5D1F4F842E912CB12C00
:10052000A12CA50194010E94DE13E62FB901CA0196
:10053000EA30F4F4E05DD801EE938D01232B242BF7
:10054000252B79F790E080E0109719F0CD010E94FB
:100550006902A1960FB6F894DEBF0FBECDBFDF9142
:10056000CF911F910F91BF90AF909F908F90089562
:10057000E95CE1CFCF93DF93D0E0C0E0009719F0C2
:100580000E946902EC0186E391E00E9469028C0FEF
:100590009D1FDF91CF910895009711F00C9469028F
:1005A00090E080E008954F925F926F927F928F92D9
:1005B0009F92AF92BF92CF92DF92EF92FF926B0128
:1005C0007C01AC019B010E94A5178823C1F089E33F
:1005D00091E00E9469027C0186E391E00E94690239
:1005E0008E0D9F1DFF90EF90DF90CF90BF90AF904A
:1005F0009F908F907F906F905F904F9008954601ED
:100600005701E894B7F82FEF3FEF4FE75FE7C501D9
:10061000B4010E94A51781110DC02FEF3FEF4FE7E6
:100620005FE7C501B4010E94821218161CF48DE325
:1006300091E0CFCF2FEF3FEF4FE75FE4C701B60167
:100640000E94211718161CF481E491E0C2CF2FEF0D
:100650003FEF4FE75FECC701B6010E94821287FDB2
:10066000F3CF20E030E0A901C701B6010E94821259
:10067000B12CA12C87FF0AC06DE289E994E00E94A9
:1006800072015C01F7FAF094F7F8F0942AE037ED84
:1006900043EA5BE3C701B6010E9489142B013C01C8
:1006A0000E9400166B017C010E9487129B01AC0125
:1006B000C301B2010E9488142B013C014AE0C7012A
:1006C000B6010E9476027C01EA0CFB1C6EE289E90D
:1006D00094E00E947201E80EF91E20E030E040E252
:1006E00051E4C301B2010E94E8122B013C010E94B7
:1006F00000164B01B12CA12C4AE0C501B4010E94A7
:100700007602E80EF91EC501B4010E9487129B0112
:10071000AC01C301B2010E94881420E030E040E245
:1007200051E40E94E8120E94001690E080E04AE046
:100730000E947602E80EF91E4FCF0F931F93CF93BE
:10074000DF93EC0188819981009759F02A813B81E0
:100750002617370730F081E0DF91CF911F910F917D
:1007600008958B016F5F7F4F0E94DC18009759F04E
:10077000998388831B830A832C813D81232B59F71E
:10078000FC011082E8CF80E0E7CFEF92FF920F9359
:100790001F93CF93DF936115710541F480E0DF91E2
:1007A000CF911F910F91FF90EF9008954115510542
:1007B000B1F07B01EC010C811D81040F151FB80104
:1007C0000E949D03882351F3288139818C819D816A
:1007D000B701820F931F0E94A2191D830C8381E031
:1007E000DECFCF93DF93EC0188819981009711F0E0
:1007F0000E945318198218821D821C821B821A8241
:10080000DF91CF910895EF92FF920F931F93CF93B3
:10081000DF93EC01198218821B821A821D821C82CE
:100820008617970719F1FB01008111810115110548
:10083000E9F0E480F580B7010E949D03811109C0B1
:10084000CE01DF91CF911F910F91FF90EF900C940B
:10085000F103FD82EC82B80188819981DF91CF910B
:100860001F910F91FF90EF900C94A219DF91CF91FF
:100870001F910F91FF90EF900895EF92FF920F93C9
:100880001F93CF93DF938C017B01EB010990002034
:10089000E9F72197C61BD70BBE010E949D0381116A
:1008A00009C0C801DF91CF911F910F91FF90EF9088
:1008B0000C94F103F801D583C483B7018081918141
:1008C000DF91CF911F910F91FF90EF900C94A2199F
:1008D000FC0180819181009711F00C9453180895C8
:1008E0004F925F926F927F928F929F92AF92BF9240
:1008F000CF92DF92EF92FF920F931F93CF93DF93EC
:10090000CDB7DEB76E970FB6F894DEBF0FBECDBF82
:100910006C012A013B01AB019201CB01B2010E94A3
:10092000A517882321F1F601118210821382128209
:100930001582148268E371E0C6010E943D04C6017D
:100940006E960FB6F894DEBF0FBECDBFDF91CF918C
:100950001F910F91FF90EF90DF90CF90BF90AF90DD
:100960009F908F907F906F905F904F90089529E8AF
:1009700038E848E05CE3C301B2010E9489140E9498
:1009800035024B015C010E942F160E94F9152B01C4
:100990008B01072E000C880B990B0E9489129B017A
:1009A000AC01C501B4010E94881420E030E040E7AA
:1009B00052E40E94E8120E942F160E94F9159B0132
:1009C00099E4A92E91E0B92E0C30110524F085E4AC
:1009D000A82E81E0B82EC2010B966CE070E00E9458
:1009E000CA137C01FFEFEF1AFF0A19823F932F937E
:1009F0008DE491E09F938F938E010F5F1F4F1F93A4
:100A00000F930E94A9191A8A198A1C8A1B8A1E8AA6
:100A10001D8AB801CE0141960E943D0419820F90B3
:100A20000F900F900F900F900F904AE0E416F10492
:100A300008F058C0FF92EF9283E591E09F938F9367
:100A40001F930F930E94A9190F900F900F900F9072
:100A50000F900F90188E1F8A1A8E198E1C8E1B8E67
:100A6000B801CE0147960E943D04BE01695E7F4FEA
:100A7000C8010E9403048AE38D8F1E8E41E050E07E
:100A8000BE01635E7F4FC8010E94C503811103C090
:100A9000C8010E94F1034D895E8969897A89C8017C
:100AA0000E94C503811103C0C8010E94F10343E005
:100AB00050E0B501C8010E94C503811103C0C801FF
:100AC0000E94F103B801C6010E940304C8010E94FC
:100AD0006804CE0147960E946804CE0141960E94A8
:100AE00068042DCFFF92EF9284E591E0A7CF2BED24
:100AF0003FE049E450E40E94E81220E030E044E3A3
:100B000053E40E9487150C942E174F925F926F92B8
:100B10007F928F929F92AF92BF92CF92DF92EF928D
:100B2000FF920F931F93CF93DF93CDB7DEB72A9732
:100B30000FB6F894DEBF0FBECDBF5A874987890133
:100B400024E631EA45E15AE40E9488142B013C0175
:100B50002DE430E54CE75FE30E94E81226EB33EC2E
:100B600042EB53E40E9489140E9401024B015C0194
:100B700023E633E54CE75FE3C301B2010E94E812CC
:100B800021EC3AE34CE853E40E9489140E940102EC
:100B90006B017C01C501B4010E94770528EB3EE1A1
:100BA00045EF5FE30E94E812A70196010E948914B5
:100BB00069837A838B839C83A5019401C501B40169
:100BC0000E9489140E9477052AE037ED43EA5CE32E
:100BD0000E94E81229813A814B815C810E9489142C
:100BE0000E9401024B015C0126E036E441EC54E333
:100BF000C301B2010E94E8129B01AC0162E173E8FB
:100C00008BEB91E40E9488142B013C012BED3FE01B
:100C100049E450E4C501B4010E94E81220E030E04C
:100C200044E353E40E9487150E9482156D837E83FE
:100C30008F8398872BED3FE049E450E4C301B20174
:100C40000E94E81220E030E044E353E40E9487155C
:100C50000E94821569837A838B839C83C501B401CA
:100C60000E9477054B015C0129813A814B815C81AF
:100C70000E94E8122D813E814F8158850E942315E4
:100C800020E030E044E353E40E94E8122BED3FE023
:100C900049E450E40E94871520E030E040E751E449
:100CA0000E94871569837A838B839C83C301B20179
:100CB0000E9477059B01AC01C501B4010E94E812B6
:100CC0000E94F51420E030E044E353E40E94E8126F
:100CD0002BED3FE049E450E40E948715E985FA8551
:100CE000608371838283938369817A818B819C8104
:100CF0000E9435024B015C0120E030E040E751E406
:100D0000C701B6010E948715A50194010E948814AD
:100D1000F80160837183828393832A960FB6F894D7
:100D2000DEBF0FBECDBFDF91CF911F910F91FF901E
:100D3000EF90DF90CF90BF90AF909F908F907F907B
:100D40006F905F904F900895CF93DF93CDB7DEB74C
:100D500028970FB6F894DEBF0FBECDBF20917C045C
:100D600030917D0440917E0450917F040E9489144B
:100D70009E012F5F3F4FAE014B5F5F4F0E94850585
:100D800029813A814B815C8160E070E080E491E4EC
:100D90000E94881428960FB6F894DEBF0FBECDBF10
:100DA000DF91CF910C9435024F925F926F927F92B8
:100DB0008F929F92AF92BF92CF92DF92EF92FF926B
:100DC000CF93DF93CDB7DEB76C970FB6F894DEBF45
:100DD0000FBECDBF4B015C0169017A0120917C04FB
:100DE00030917D0440917E0450917F04C701B6018B
:100DF0000E9489149E012F5F3F4FAE014B5F5F4FF2
:100E00000E9485054D805E806F807884C701B601A1
:100E10000E94A4066D8B7E8B8F8B988FC501B401C9
:100E20000E94770569877A878B879C87C301B20107
:100E30000E9477056D877E878F87988BC09084048A
:100E4000D0908504E0908604F0908704C701B60135
:100E50000E947705698B7A8B8B8B9C8B2BED3FE007
:100E600049E450E4C301B2010E94E81220E030E0FE
:100E700044E353E40E9487150E948215698F7A8F9C
:100E80008B8F9C8F2BED3FE049E450E4C701B60106
:100E90000E94E81220E030E044E353E40E9487150A
:100EA0000E9482152B013C01C984DA84EB84FC8406
:100EB000F7FAF094F7F8F09429893A894B895C891C
:100EC0006D857E858F8598890E94E8129B01AC0113
:100ED000C701B6010E9488146B017C01298D3A8DEF
:100EE0004B8D5C8DC301B2010E94E8129B01AC01E5
:100EF000C701B6010E9487150E94771420E030E0F8
:100F000044E353E40E94E8122BED3FE049E450E44F
:100F10000E94871529E838E848E85DE30E94E81256
:100F20006B017C0120E030E044EB52E4C501B401E8
:100F30000E942117181624F4F7FAF094F7F8F094A9
:100F40002D893E894F89588DC701B6010E948914A9
:100F50006C960FB6F894DEBF0FBECDBFDF91CF9178
:100F6000FF90EF90DF90CF90BF90AF909F908F90C9
:100F70007F906F905F904F9008951F920F920FB6E1
:100F80000F9211242F933F938F939F93AF93BF930F
:100F90008091950490919604A0919704B091980443
:100FA0003091940423E0230F2D3758F50196A11DAD
:100FB000B11D209394048093950490939604A0937C
:100FC0009704B09398048091900490919104A0911B
:100FD0009204B09193040196A11DB11D80939004D9
:100FE00090939104A0939204B0939304BF91AF9116
:100FF0009F918F913F912F910F900FBE0F901F9057
:10100000189526E8230F0296A11DB11DD2CF1F927D
:101010000F920FB60F9211242F933F934F935F932C
:101020006F937F938F939F93AF93BF93EF93FF93B0
:1010300089E994E00E945001FF91EF91BF91AF9137
:101040009F918F917F916F915F914F913F912F91E0
:101050000F900FBE0F901F9018951F920F920FB612
:101060000F9211242F938F939F93EF93FF93E0910F
:10107000A904F091AA048081E091AF04F091B0043A
:1010800082FD1BC090818091B2048F5F8F7320918D
:10109000B304821741F0E091B204F0E0E756FB4F51
:1010A000958F8093B204FF91EF919F918F912F9133
:1010B0000F900FBE0F901F9018958081F4CFACE079
:1010C000B0E0E5E6F8E00C944114BE016F5F7F4F9D
:1010D0000E9481086091000170910101CE0101968A
:1010E0000E941A0980910001909101012C96E2E082
:1010F0000C945D1468E975E00E94810888E995E028
:101100000895A4E0B0E0E7E8F8E00C943B146C012B
:101110007B01E091C205F091C3050FEF1FEF3097FF
:1011200021F064EA75E009958C01F60180819181D6
:10113000A281B3814091A4055091A5056091A605B7
:101140007091A705840F951FA61FB71F10161106D3
:1011500084F089839A83AB83BC83B701CE01019667
:101160000E949809F701138702872496E8E00C94FF
:101170005714A801012E000C660B770B840F951FE6
:10118000A61FB71FE6CFA4E0B0E0E9ECF8E00C94AE
:101190003F148C010E945C0A69837A838B839C8351
:1011A000F8018285938597FF0EC0E091C205F0910A
:1011B000C305309741F064EA75E0CE0101960995C8
:1011C000F80193878287F80182859385181619069E
:1011D00084F4092E000CAA0BBB0B49815A816B8148
:1011E0007C81481B590B6A0B7B0B49835A836B83A9
:1011F0007C8389819A81AB81BC814091A405509107
:10120000A5056091A6057091A705841B950BA60BFB
:10121000B70B89839A83AB83BC83B801CE01019657
:101220000E94810869817A818B819C812496E4E007
:101230000C945B14B0E0A0E0E0E2F9E00C943B1405
:101240008C01EB01FC018481682F660F680F85819A
:10125000582F550F580F9E0140E0862F840F90E0C5
:10126000A0E08E5E9E4FAF4FFC018491A7FD808170
:10127000F90181939F01852F840F90E0A0E0885DA4
:101280009E4FAF4FFC018491A7FD8081F9018383BC
:101290004F5F433011F780E28F838B83BE01685F1D
:1012A0007F4FF801838140E2082E000C990B0E94C9
:1012B000180BBE01655F7F4FF80182814AE3082E5B
:1012C000000C990B0E94180BBE01625F7F4FF80162
:1012D00081814AE3082E000C990B0E94180BBE0175
:1012E0006F5E7F4FF801808140E2082E000C990B61
:1012F0000E94180BF8018681978164E670E084599A
:10130000984F0E94CA136B017C01BE016C5E7F4F37
:1013100040E2C6010E94180BBE016A5E7F4F40E0AA
:10132000C7010E94180BCDB7DEB7E8E00C94571444
:10133000A8E0B0E0EEE9F9E00C943B148B01FC016D
:10134000608171818281938120E831E541E050E044
:101350000E94DE1369017A012CE330E040E050E0A6
:101360000E94001429833A834B835C8389819A818C
:10137000AB81BC81F80160836CE370E00E94CA130A
:10138000DC01F801A1836283C601069667E070E084
:101390000E94B61384832DEA3EE840E050E0C70186
:1013A000B6010E94001429833A836D837E838F8364
:1013B000988789819A8124E6289F6001299FD00C13
:1013C00011246D817E818F81988525EB35E040E089
:1013D00050E00E94001429833A836D837E83E98064
:1013E000FA80EE0CFF1CEE0CFF1CEC0CFD1C8D813A
:1013F0009E81F5E6EF16F104A0F1019621E030E0C0
:10140000A90144595E4F4817590760F46DE671E031
:10141000821B930B0E94CA13DC01E60EF71ECD015E
:1014200030E020E044E6E40EF11CF801F782E682A9
:1014300091878087255C3F4F82179307E0F46FE127
:1014400070E00E94CA13DC01F8016583A383F801F0
:101450001386128683818F5F83832896E8E00C943D
:10146000571451E040E024E6E216F10409F450E09C
:10147000252F342FC5CF69E970E0821B930B0E94A2
:10148000CA13DC01262F220F220FF22EF60E6DE377
:1014900070E0CD010E94CA13DC01E62EEE0C6FE174
:1014A00070E0CD010E94CA13DC0122E0260F2F0D4F
:1014B0002E0DF8012583CACF8F929F92AF92BF92D3
:1014C000CF92DF92EF92FF92CF93DF93EC01EE8108
:1014D000FF817F0124E6E21AF108D12CC12CB1F082
:1014E000CF01855691096C0197FF03C023E0C20E1E
:1014F000D11CD594C794D594C7946CE97FEF0E9412
:10150000CA13C60ED71E8FEFC81AD80A2DE631E0CF
:10151000D7010E941F144601DD0CAA08BB08860EE5
:10152000971EA81EB91E8B81082E000C990B7C01FA
:1015300021E0E21AF1082D8122300CF049C022236B
:1015400021F07C012EE1E20EF11C6701FF0CEE0898
:10155000FF08C80CD91CEA1CFB1CAA810A2E000C2F
:10156000BB0B20E13EE00E941F144B015C01A981EE
:101570000A2E000CBB0B2CE330E00E941F14AB01C1
:10158000BC01480D591D6A1D7B1D8881082E000C69
:10159000990BAA0BBB0B4C015D01840E951EA61E78
:1015A000B71EA701960160E871E581E090E00E9416
:1015B000A613680D791D8A1D9B1DDF91CF91FF90A9
:1015C000EF90DF90CF90BF90AF909F908F90089555
:1015D000CF018459984F0E942A0BC82ED12C8BE33F
:1015E000C80ED11CCE0CDF1C8D81082E000C990B6F
:1015F0000297853091051CF029E9C20ED11C65E0E7
:1016000070E00E94CA139C0197FF02C02F5F3F4FFA
:10161000359527959DE3929F7001939FF00C1124BF
:10162000EC0CFD1C80FF91CF8FE1E80EF11C8DCFFB
:101630001F93CF93DF93EB01142F6AE070E00E94B9
:10164000CA13605D6883805D89831A83DF91CF91BF
:101650001F9108959C0123703327232B59F464E6CE
:1016600070E00E94CA13892B39F46370772781E0F8
:10167000672B19F080E0089581E0089510929C0492
:1016800010929B0488EE93E0A0E0B0E080939D046C
:1016900090939E04A0939F04B093A00488E291E0ED
:1016A00090939A048093990485EC90E09093A6041B
:1016B0008093A50484EC90E09093A8048093A70401
:1016C00080EC90E09093AA048093A90481EC90E0D0
:1016D0009093AC048093AB0482EC90E09093AE04C2
:1016E0008093AD0486EC90E09093B0048093AF04B7
:1016F0001092B2041092B3041092B4041092B50484
:10170000E6E3F5E080E090E0A0E9B1E421E0808349
:101710009183A283B3832483158216821782108655
:10172000118682879387A487B5873E9635E0E8398E
:10173000F30769F70895CF93DF93CDB7DEB7C456AB
:10174000D1090FB6F894DEBF0FBECDBF789484B533
:10175000826084BD84B5816084BD85B5826085BDAD
:1017600085B5816085BD80916E00816080936E003B
:10177000109281008091810082608093810080912D
:1017800081008160809381008091800081608093DE
:1017900080008091B10084608093B1008091B0009E
:1017A00081608093B00080917A00846080937A0099
:1017B00080917A00826080937A0080917A008160C3
:1017C00080937A0080917A00806880937A001092EA
:1017D000C100E091A904F091AA0482E08083E09125
:1017E000A504F091A6041082E091A704F091A8044A
:1017F0008FEC80831092B104E091AD04F091AE04BF
:1018000086E08083E091AB04F091AC04808180613C
:101810008083E091AB04F091AC0480818860808388
:10182000E091AB04F091AC04808180688083E0910A
:10183000AB04F091AC0480818F7D8083109277049B
:1018400010927604109278041092790410927A041F
:1018500010927B0480E090E0A0EAB0E480938804DA
:1018600090938904A0938A04B0938B0488E397EA49
:10187000A6E0B2E48093840490938504A093860448
:10188000B093870486EA9BEFA1E9B2E480938004D9
:1018900090938104A0938204B093830487E591E040
:1018A0000E94BA028BE891E00E94BA028FEB91E0AD
:1018B0000E94BA0283EF91E00E94BA0287E292E0AE
:1018C0000E94BA028BE592E00E94BA028FE892E091
:1018D0000E94BA0283EC92E00E94BA0287EF92E083
:1018E0000E94BA028BE293E00E94BA0287E591E07F
:1018F0000E94BA0289E994E00E9430011816190684
:10190000CCF789E994E00E940E0190ED980F973092
:1019100008F405C48FE593E00E94BA02BFCF45E901
:10192000E41A48EFF40A8901035F1F4FB7010F2C37
:10193000000C880B990B0E94891220E030E048ECE3
:1019400052E40E9487150E942F164B015C0120E093
:1019500030E040E85EE30E94E8120E942F162B015F
:101960003C01B70164597D4E072E000C880B990B82
:101970000E94891220E030EA46EB53E40E94E8120C
:101980000E942F166B017C01B8016F5F7F4F072EFD
:10199000000C880B990B0E94891221E03DEC44EF6A
:1019A00051E40E94E8120E942F169B01AC01C7016E
:1019B000B6010E9489146B017C01632D330C770BF7
:1019C000880B990B0E9489129B01AC01C701B601DB
:1019D0000E9489146B017C01A501940160E070E014
:1019E00080E090E40E948814A30192010E9489146F
:1019F0009B01AC01C701B6010E94891420E030E9C7
:101A00004EEB54E40E9488146B017C0120E030E02E
:101A100044EB53E469966CAD7DAD8EAD9FAD699797
:101A20000E9487159B01AC01C701B6010E94881472
:101A30004B015C0180927C0490927D04A0927E0414
:101A4000B0927F048CE1E8E0F1E0DE0111960190B4
:101A50000D928A95E1F7FE0131963E015DE1650E3A
:101A6000711CD30141915191619171914D935D939D
:101A70006D937D936E167F06A9F773018CE1E80ED6
:101A8000F11C2301D2016D917D918D919D912D01CC
:101A90006D01B4E0CB1AD10820E030E040EC51E415
:101AA0000E948715F6016083718382839383E41417
:101AB000F50441F720908E0430908F04CD8CDE8C9D
:101AC000EF8CF8A02EE0229DC001239D900D1124E3
:101AD0009C012A5C3A4F6B963FAF2EAF6B97D901B2
:101AE0002D913D914D915C9160E070E084E393E431
:101AF0000E948814A70196010E94D4066D8F7E8FE4
:101B00008F8F98A329A13AA14BA15CA161EC7AE245
:101B100083E393E40E94D40669A37AA38BA39CA3D6
:101B20006DA17EA18FA198A50E94A4066DA37EA39E
:101B30008FA398A7C9A4DAA4EBA4FCA400918C04F9
:101B400010918D040F5F1F4FA7019601C501B401CD
:101B50000E9489149E012B5B3F4FAE01475B5F4F94
:101B60000E9485052D962CAD3DAD4EAD5FAD2D97F8
:101B7000A1966CAD7DAD8EAD9FADA1970E948814EE
:101B80009F772BED3FE049E450E40E94E81220E00B
:101B900030E044E353E40E9487150E9480174B0114
:101BA0005C01B801110F880B990B0E948912A501E5
:101BB00094010E9489149B01AC0160E070E080E810
:101BC0009FE30E9487150E94531520E030E044E314
:101BD00053E40E94E8122BED3FE049E450E40E94F8
:101BE00087159058A70196010E94D40669A77AA785
:101BF0008BA79CA72DA53EA54FA558A96DE77FE310
:101C000085E59FE30E94D4066DA77EA78FA798ABBA
:101C100029A93AA94BA95CA96B96EEADFFAD6B97CC
:101C200065817681878190850E94D40669AB7AAB05
:101C30008BAB9CAB2DA93EA94FA958AD6B96AEAD11
:101C4000BFAD6B971A966D917D918D919C911D976B
:101C50000E94D4066DAB7EAB8FAB98AF20E030E036
:101C600040E751E469966CAD7DAD8EAD9FAD69974F
:101C70000E9487159B01AC01A5966CAD7DAD8EAD24
:101C80009FADA5970E9488146B017C01F3016191BF
:101C90007191819191913F018F0104501109A70128
:101CA00096010E948914D8016D937D938D939C9326
:101CB00013974614570451F720E030E040E752E410
:101CC000609178047091790480917A0490917B04FA
:101CD0000E9487152DA13EA14FA158A50E948914ED
:101CE000A5966CAF7DAF8EAF9FAFA5976DA37EA37A
:101CF0008FA398A78EE0829DF001839DF00D1124A3
:101D0000EA5CFA4F04814DA45EA46FA478A8002376
:101D100091F020E030E040E752E4658176818781F0
:101D200090850E948715A30192010E94891469ABD6
:101D30007AAB8BAB9CAB8EE0829DF001839DF00D66
:101D40001124EA5CFA4F118529A93AA94BA95CA98B
:101D500069962CAF3DAF4EAF5FAF69971123B1F0DD
:101D600020E030E040E752E4628573858485958504
:101D70000E94871569962CAD3DAD4EAD5FAD69975C
:101D80000E9489146DAB7EAB8FAB98AF89A19AA1ED
:101D9000ABA1BCA16D968CAF9DAFAEAFBFAF6D9741
:101DA0008091760490917704892B09F4F2C08D8C90
:101DB0009E8CAF8CB8A0A30192016D966CAD7DADE9
:101DC0008EAD9FAD6D970E9488140E9435026B0105
:101DD0007C018EE0829DF001839DF00D1124EA5C70
:101DE000FA4F60817181828193810E94DF019B01A2
:101DF000AC01C701B6010E94E812A1966CAF7DAF9D
:101E00008EAF9FAFA197A5019401C501B4010E94B7
:101E1000A517811118C0A50194016D966CAD7DAD1B
:101E20008EAD9FAD6D970E9488140E9435029B0174
:101E3000AC01A1966CAD7DAD8EAD9FADA1970E941A
:101E4000821287FF12C0A1962CAD3DAD4EAD5FADA5
:101E5000A1976D966CAD7DAD8EAD9FAD6D970E94D7
:101E600088146D8F7E8F8F8F98A360E070E080E97B
:101E700091E411110CC08EE0829DF001839DF00D64
:101E80001124EA5CFA4F62857385848595850E94EA
:101E9000DF019B01AC01C701B6010E94E812A196C7
:101EA0006CAF7DAF8EAF9FAFA1978DA89EA8AFA856
:101EB000B8ACA5019401C501B4010E94A517811118
:101EC00014C0A3019201C501B4010E9488140E94AC
:101ED00035029B01AC01A1966CAD7DAD8EAD9FAD81
:101EE000A1970E94821287FF0EC0A1962CAD3DAD36
:101EF0004EAD5FADA197C301B2010E9489146DABD5
:101F00007EAB8FAB98AF60E070E080E890E40111A9
:101F10000CC08EE0829DF001839DF00D1124EA5CDF
:101F2000FA4F65817681878190850E94DF019B0150
:101F3000AC01C701B6010E94E8126B017C016996F1
:101F40002CAD3DAD4EAD5FAD6997CA01B9010E94A0
:101F5000A517811114C0A301920169966CAD7DADE6
:101F60008EAD9FAD69970E9488140E9435029B0137
:101F7000AC01C701B6010E94821287FF0AC0A70107
:101F80009601C301B2010E94891469AB7AAB8BAB95
:101F90009CAB86EE93E00E94CC028BE394E00E941F
:101FA000CC024D8D5E8D6F8D78A1CE0101960E9481
:101FB000700489819A810E94BA02CE0101960E9422
:101FC00068048BEE93E00E94CC028EE394E00E94C2
:101FD000CC026D964CAD5DAD6EAD7FAD6D97CE0113
:101FE00001960E94700489819A810E94BA02CE01F2
:101FF00001960E94680483EF93E00E94CC028CE378
:1020000094E00E94CC02A5964CAD5DAD6EAD7FAD67
:10201000A597CE0101960E94700489819A810E9441
:10202000BA02CE0101960E94680489EF93E00E94F3
:10203000CC028AE394E00E94CC0249A55AA56BA584
:102040007CA5CE0101960E94700489819A810E942C
:10205000BA02CE0101960E9468048DEF93E00E94BF
:10206000CC028DE394E00E94CC02B301A201CE0128
:1020700001960E94700489819A810E94BA02CE0161
:1020800001960E94680484E094E00E94CC028EE3F2
:1020900094E00E94CC0249A95AA96BA97CA9CE015F
:1020A00001960E94700489819A810E94BA02CE0131
:1020B00001960E9468048CE094E00E94CC028BE3BD
:1020C00094E00E94CC024DA95EA96FA978ADCE0123
:1020D00001960E94700489819A810E94BA02CE0101
:1020E00001960E94680481E194E00E94BA0289E9A5
:1020F00094E00E94300118161906CCF789E994E0A3
:102100000E940E0180E090E0892B09F4C7CB0E9469
:102110003C01882309F4C2CB0E940000BFCB8F7022
:10212000082E000C990B90938F0480938E0420E06E
:1021300030E040E951E42093360530933705409371
:1021400038055093390581E080933A0510923B059C
:1021500010923C0510923D0510923E0510923F05ED
:1021600020E030E048E851E42093400530934105F9
:10217000409342055093430520E030E040E951E4AC
:1021800020934405309345054093460550934705F9
:10219000809348051092490510924A0510924B050C
:1021A00010924C0510924D0520934E0530934F052B
:1021B000409350055093510520E030E040E751E452
:1021C0002093520530935305409354055093550581
:1021D0008093560510925705109258051092590594
:1021E00010925A0510925B0520935C0530935D05B3
:1021F00040935E0550935F0520E030E044E951E4F0
:102200002093600530936105409362055093630508
:10221000809364051092650510926605109267051B
:10222000109268058093690520E030E044EB52E4A9
:1022300020936A0530936B0540936C0550936D05B0
:1022400020E030E04CE951E420936E0530936F05B7
:102250004093700550937105809372051092730539
:1022600010927405109275051092760510927705FC
:1022700080E090E0ACE8B1E4809378059093790534
:10228000A0937A05B0937B0520E030E040E851E46C
:1022900020937C0530937D0540937E0550937F0508
:1022A0001092800580E090E0A0E8B0E48093810582
:1022B00090938205A0938305B093840510928505C1
:1022C00020E030E040E651E4209386053093870516
:1022D00040938805509389058AE999E9ADE8B1E40E
:1022E00080938A0590938B05A0938C05B0938D0500
:1022F00010928E0510928F05109290051092910504
:1023000010929205109293052093940530939505B1
:10231000409396055093970588E391E00E94BA0296
:1023200084E793E00E94BA028AE993E00E94BA022D
:1023300080EC93E00E94BA0289E994E00E943001A7
:1023400018161906CCF789E994E00E940E0190ED69
:10235000980F923028F08FE593E00E94BA02DCCF0C
:102360008F70082E000C990B90938D0480938C0431
:1023700086E289AF8DE18AAF8EE08BAF8EE18CAFC4
:1023800082E08DAF85E08EAF88E790E021969FAF29
:102390008EAF2197CE01C9960E94C30865966CAF97
:1023A0007DAF8EAF9FAF659781E394E00E94CC0232
:1023B000CE018F5A9F4F0E945F080E94BA0282E4AA
:1023C00094E00E94CC02609188047091890480910D
:1023D0008A0490918B040E94D30283E594E00E94CA
:1023E000CC02609184047091850480918604909160
:1023F00087040E94D30284E694E00E94CC0260919C
:1024000080047091810480918204909183040E94E1
:10241000D302209188043091890440918A0450911C
:102420008B04A5962CAF3DAF4EAF5FAFA5978091C3
:10243000800490918104A0918204B09183046996F4
:102440008CAF9DAFAEAFBFAF699720918404309140
:1024500085044091860450918704A1962CAF3DAF2E
:102460004EAF5FAFA19765968CAD9DADAEADBFADE4
:10247000659761968CAF9DAFAEAFBFAF6197CE0150
:10248000835B9F4F0E947A08FC0133802581022ED6
:10249000000C330B89010F5F1F4FE680F780A19678
:1024A0008CAD9DADAEADBFADA197809384049093EC
:1024B0008504A0938604B093870469968CAD9DAD86
:1024C000AEADBFAD69978093800490938104A093D3
:1024D0008204B0938304A5968CAD9DADAEADBFAD27
:1024E000A5978093880490938904A0938A04B0935D
:1024F0008B04033011050CF412CA94E9E91A98EF21
:10250000F90A14CA0E94C41208F481E00895E894FC
:1025100009C097FB3EF490958095709561957F4F2B
:102520008F4F9F4F9923A9F0F92F96E9BB279395D9
:10253000F695879577956795B795F111F8CFFAF4E9
:10254000BB0F11F460FF1BC06F5F7F4F8F4F9F4F1A
:1025500016C0882311F096E911C0772321F09EE878
:10256000872F762F05C0662371F096E8862F70E0DE
:1025700060E02AF09A95660F771F881FDAF7880FB8
:102580009695879597F90895990F0008550FAA0B0E
:10259000E0E8FEEF16161706E807F907C0F0121676
:1025A0001306E407F50798F0621B730B840B950B79
:1025B00039F40A2661F0232B242B252B21F40895CE
:1025C0000A2609F4A140A6958FEF811D811D08956B
:1025D0000E94FB120C946C130E945E1338F00E9450
:1025E000651320F0952311F00C9455130C945B1394
:1025F00011240C94A0130E947D1370F3959FC1F3D6
:10260000950F50E0551F629FF001729FBB27F00DA0
:10261000B11D639FAA27F00DB11DAA1F649F6627F5
:10262000B00DA11D661F829F2227B00DA11D621F44
:10263000739FB00DA11D621F839FA00D611D221FFE
:10264000749F3327A00D611D231F849F600D211DE2
:10265000822F762F6A2F11249F5750409AF0F1F065
:1026600088234AF0EE0FFF1FBB1F661F771F881FCE
:1026700091505040A9F79E3F510580F00C9455139E
:102680000C94A0135F3FE4F3983ED4F386957795BE
:102690006795B795F795E7959F5FC1F7FE2B880F74
:1026A000911D9695879597F9089597F99F6780E80A
:1026B00070E060E008959FEF80EC089500240A9494
:1026C0001616170618060906089500240A9412160D
:1026D0001306140605060895092E0394000C11F440
:1026E000882352F0BB0F40F4BF2B11F460FF04C0ED
:1026F0006F5F7F4F8F4F9F4F089557FD9058440F46
:10270000551F59F05F3F71F04795880F97FB991F50
:1027100061F09F3F79F0879508951216130614060D
:10272000551FF2CF4695F1DF08C01616170618069A
:10273000991FF1CF86957105610508940895E89475
:10274000BB2766277727CB0197F90895DB018F9385
:102750009F930E942614BF91AF91A29F800D911D5F
:10276000A39F900DB29F900D11240895AA1BBB1B2F
:1027700051E107C0AA1FBB1FA617B70710F0A61B81
:10278000B70B881F991F5A95A9F780959095BC01A2
:10279000CD01089597FB072E16F4009407D077FD1E
:1027A00009D00E94B61307FC05D03EF490958195A0
:1027B0009F4F0895709561957F4F0895A1E21A2E5D
:1027C000AA1BBB1BFD010DC0AA1FBB1FEE1FFF1FD5
:1027D000A217B307E407F50720F0A21BB30BE40B25
:1027E000F50B661F771F881F991F1A9469F760956C
:1027F0007095809590959B01AC01BD01CF01089526
:10280000052E97FB1EF400940E94171457FD07D065
:102810000E94DE1307FC03D04EF40C94171450955D
:102820004095309521953F4F4F4F5F4F08959095BC
:102830008095709561957F4F8F4F9F4F08950E94AF
:102840006814B7FF0895821B930B08950E946814C3
:10285000A59F900DB49F900DA49F800D911D1124F4
:1028600008952F923F924F925F926F927F928F9234
:102870009F92AF92BF92CF92DF92EF92FF920F930F
:102880001F93CF93DF93CDB7DEB7CA1BDB0B0FB619
:10289000F894DEBF0FBECDBF09942A8839884888D6
:1028A0005F846E847D848C849B84AA84B984C8846C
:1028B000DF80EE80FD800C811B81AA81B981CE0F63
:1028C000D11D0FB6F894DEBF0FBECDBFED01089548
:1028D000A29FB001B39FC001A39F700D811D112461
:1028E000911DB29F700D811D1124911D08959F931C
:1028F0009F770E9446160F90002042F49058A2EA5B
:102900002AED3FE049E450E40E94A0140C946C13BB
:102910005058BB27AA270E94A0140C946C130E9445
:102920005E1338F00E94651320F039F49F3F19F4CC
:1029300026F40C945B130EF4E095E7FB0C9455130E
:10294000E92F0E947D1358F3BA17620773078407B3
:10295000950720F079F4A6F50C949F130EF4E095FA
:102960000B2EBA2FA02D0B01B90190010C01CA0149
:10297000A0011124FF27591B99F0593F50F4503EF4
:1029800068F11A16F040A22F232F342F4427585FE6
:10299000F3CF469537952795A795F0405395C9F7FE
:1029A0007EF41F16BA0B620B730B840BBAF09150B6
:1029B000A1F0FF0FBB1F661F771F881FC2F70EC055
:1029C000BA0F621F731F841F48F487957795679528
:1029D000B795F7959E3F08F0B0CF9395880F08F014
:1029E0009927EE0F9795879508959F939F77EEE32C
:1029F00089379E0728F4E8E6F0E00E94B6160CC07E
:102A00000E9446169058A2EA2AED3FE049EC5FE3A7
:102A10000E94A0140E946C130F9007FC9058089518
:102A20000E945E1360F080E891E009F49EEF0E943E
:102A3000651328F040E851E071F45EEF0CC00C948F
:102A40005B130C949F13E92FE0780E947D1340F3F1
:102A5000092E052AB1F3261737074807590738F01A
:102A60000E2E07F8E02569F0E025E0640AC0EF6368
:102A700007F8009407FADB01B9019D01DC01CA01E6
:102A8000AD01EF930E949E150E946C130E94531596
:102A90005F91552339F02BED3FE049E450FD49ECBF
:102AA0000C9489140895DF93DD27B92FBF7740E890
:102AB0005FE31616170648075B0718F4D92F0E9424
:102AC00026179F938F937F936F930E947C17ECE759
:102AD000F0E00E948F160E946C132F913F914F914E
:102AE0005F910E94FB12DD2351F09058A2EA2AED7B
:102AF0003FE049EC5FE3D0785D270E94A014DF91AE
:102B00000C946C130E94CC16E3950C94F5160E945D
:102B10009B150C946C130E94651358F00E945E1371
:102B200040F029F45F3F29F00C94551351110C9497
:102B3000A0130C945B130E947D1368F39923B1F3E7
:102B4000552391F3951B550BBB27AA2762177307D3
:102B5000840738F09F5F5F4F220F331F441FAA1F67
:102B6000A9F335D00E2E3AF0E0E832D09150504023
:102B7000E695001CCAF72BD0FE2F29D0660F771FD1
:102B8000881FBB1F261737074807AB07B0E809F0B7
:102B9000BB0B802DBF01FF2793585F4F3AF09E3F3C
:102BA000510578F00C9455130C94A0135F3FE4F397
:102BB000983ED4F3869577956795B795F7959F5F7F
:102BC000C9F7880F911D9695879597F90895E1E0CB
:102BD000660F771F881FBB1F621773078407BA072A
:102BE00020F0621B730B840BBA0BEE1F88F7E09585
:102BF00008950E9400166894B1110C94A0130895D2
:102C00000E94851388F09F5798F0B92F9927B751E4
:102C1000B0F0E1F0660F771F881F991F1AF0BA9580
:102C2000C9F714C0B13091F00E949F13B1E008952C
:102C30000C949F13672F782F8827B85F39F0B93F1E
:102C4000CCF3869577956795B395D9F73EF4909533
:102C50008095709561957F4F8F4F9F4F08950E948B
:102C6000091790F09F3748F4911116F00C94A013B7
:102C700060E070E080E89FEB089526F41B16611D6C
:102C8000711D811D0C9466160C948116DF93CF93F1
:102C90001F930F938B01EC01E9EAF0E00E948F167D
:102CA0000E946C139801AE018B01EC0160E070E0B2
:102CB00080E89FE30E9488140E943C179801AE01AF
:102CC0000F911F91CF91DF910C94FB12882371F427
:102CD000772321F09850872B762F07C0662311F4B5
:102CE00099270DC09051862B70E060E02AF09A95EC
:102CF000660F771F881FDAF7880F9695879597F9E3
:102D000008959F3F31F0915020F48795779567950E
:102D1000B795880F911D9695879597F90895DF933C
:102D2000CF931F930F93FF92EF92DF927B018C0161
:102D3000689406C0DA2EEF010E94FB12FE01E894AF
:102D4000A5912591359145915591A6F3EF010E94EA
:102D5000A014FE019701A801DA9469F7DF90EF90C3
:102D6000FF900F911F91CF91DF9108959F938F93C3
:102D70007F936F93FF93EF939B01AC010E94E81246
:102D8000EF91FF910E948F162F913F914F915F918C
:102D90000C94E8120C945B130E948513D8F3E8940A
:102DA000E0E0BB279F57F0F02AED3FE049EC06C07A
:102DB000EE0FBB0F661F771F881F28F0B23A62071D
:102DC0007307840728F0B25A620B730B840BE395E8
:102DD0009A9572F7803830F49A95BB0F661F771F6B
:102DE000881FD2F790480C948316EF93E0FF07C03A
:102DF000A2EA2AED3FE049EC5FEB0E94A0140E949A
:102E00006C130F90039401FC9058E1EDF0E00C94EA
:102E1000B6160E948513A0F0BEE7B91788F4BB2749
:102E20009F3860F41616B11D672F782F8827985F9A
:102E3000F7CF869577956795B11D93959639C8F329
:102E400008950E94C41208F48FEF08959B01AC010D
:102E500060E070E080E89FE30C9487159F930E94E8
:102E6000CC160F9007FCEE5F0C94F51619F416F4CF
:102E70000C945B130C9481160E948513B8F399236C
:102E8000C9F3B6F39F57550B87FF0E94AA1700247A
:102E9000A0E640EA900180585695979528F4805C0A
:102EA000660F771F881F20F026173707480730F472
:102EB000621B730B840B202931294A2BA69517948A
:102EC0000794202531254A2758F7660F771F881F5A
:102ED00020F026173707480730F4620B730B840B7A
:102EE000200D311D411DA09581F7B901842F915806
:102EF000880F9695879508959B01AC010C94E81274
:102F0000DF93D92F0E94CC16E695D7952AED3FE0A6
:102F100049E45FE3B33A6207730784079507D795DF
:102F20003AF0A2EA49EC90680E94A0140E946C1347
:102F3000EFEEF0E00E94B616DD0F13F00E942617A8
:102F4000DD0F0BF49058DF9108950E94C412880B96
:102F5000990B089591505040660F771F881FD2F744
:102F60000895EE0FFF1F0590F491E02D09940F9343
:102F70001F93CF93DF938230910510F482E090E0AD
:102F8000E091C605F091C70530E020E0B0E0A0E098
:102F9000309799F42115310509F44AC0281B390BE3
:102FA00024303105D8F58A819B816115710589F13D
:102FB000FB0193838283FE0111C040815181028114
:102FC000138148175907E0F04817590799F41097EB
:102FD00061F012960C93129713961C933296CF01C0
:102FE000DF91CF911F910F9108950093C605109323
:102FF000C705F4CF2115310551F04217530738F0BA
:10300000A901DB019A01BD01DF01F801C1CFEF0188
:10301000F9CF9093C7058093C605CDCFFE01E20F8F
:10302000F31F819391932250310939832883D7CF9D
:103030002091C4053091C505232B41F42091040152
:10304000309105013093C5052093C40520910201FC
:10305000309103012115310541F42DB73EB7409160
:10306000060150910701241B350BE091C405F09136
:10307000C505E217F307A0F42E1B3F0B28173907ED
:1030800078F0AC014E5F5F4F2417350748F04E0FC4
:103090005F1F5093C5054093C405819391939FCFC3
:1030A000F0E0E0E09CCFCF93DF930097E9F0FC01E4
:1030B000329713821282A091C605B091C705ED0127
:1030C00030E020E01097A1F420813181820F931F1E
:1030D0002091C4053091C5052817390709F061C052
:1030E000F093C505E093C405DF91CF910895EA01FF
:1030F000CE17DF07E8F54A815B819E014115510536
:10310000B1F7E901FB83EA8349915991C40FD51FB7
:10311000EC17FD0761F4808191810296840F951F61
:10312000E90199838883828193819B838A83F0E07C
:10313000E0E012968D919C9113970097B9F52D912F
:103140003C911197CD010296820F931F2091C405E7
:103150003091C5052817390739F6309751F5109287
:10316000C7051092C605B093C505A093C405BCCF92
:10317000D383C28340815181840F951FC817D9071B
:1031800061F44E5F5F4F88819981480F591F5183C9
:1031900040838A819B81938382832115310509F0C5
:1031A000B0CFF093C705E093C6059ECFFD01DC01CB
:1031B000C0CF13821282D7CFB0E0A0E0E2EEF8E1F8
:1031C0000C9433148C01009751F4CB010E94B71773
:1031D0008C01C801CDB7DEB7E0E10C944F14FC01BF
:1031E000E60FF71F9C0122503109E217F30708F49C
:1031F0009DC0D901CD91DC911197C617D70798F0E2
:10320000C530D10530F3CE0104978617970708F330
:10321000C61BD70B2297C193D1936D937C93CF019B
:103220000E945318D6CF5B01AC1ABD0A4C018C0E1C
:103230009D1EA091C605B091C705512C412CF12CC3
:10324000E12C109731F58091C4059091C505881542
:10325000990509F05CC04616570608F058C08091E1
:10326000020190910301009741F48DB79EB7409100
:10327000060150910701841B950BE817F90708F028
:1032800055C0F093C505E093C405F90171836083CF
:10329000A0CF8D919C91119712966C9012971396D6
:1032A0007C901397A815B90559F56C0142E0C40E3E
:1032B000D11CCA14DB0420F1AC014A195B09DA0104
:1032C0001296159780F06282738251834083D901F0
:1032D0006D937C93E114F10471F0D7011396FC9384
:1032E000EE93129776CF22968C0F9D1FF901918352
:1032F0008083F301EFCFF093C705E093C60569CF54
:103300004816590608F42C017D01D3019ACFCB0150
:103310000E94B7177C01009749F0AE01B8010E94E6
:103320009919C8010E945318870153CF10E000E09B
:1033300050CFFB01DC0102C001900D924150504082
:10334000D8F70895FB01DC0101900D920020E1F710
:103350000895AEE0B0E0EFEAF9E10C943F140D8976
:103360001E8986E08C831A8309838FEF9FE79E83F3
:103370008D83AE01475E5F4F6F89788DCE010196D8
:103380000E94CC192F813885020F131FF80110827B
:103390002E96E4E00C945B14ABE0B0E0E2EDF9E1D2
:1033A0000C9431147C013B018A01FC0117821682C6
:1033B000838181FFC8C1CE0101965C01F701938131
:1033C000F30193FD859193FF81913F01882309F4D7
:1033D00053C1853239F493FD859193FF81913F016B
:1033E000853229F4B70190E00E94BC1BE7CF912CF5
:1033F000212C312CFFE1F31538F08B3211F190F4D0
:10340000803209F1833229F137FC3CC020ED280FCE
:103410002A3050F536FE20C08AE0989E200D1124F7
:10342000922E06C08D3291F0803371F7689430F897
:10343000F30193FD859193FF81913F018111DACFD3
:1034400021C0689431F8689432F8F2CF689433F868
:10345000EFCF689434F8ECCFEAE02E9E200D1124D3
:10346000222E689435F8E4CF8E3229F436FC04C15C
:10347000689436F8DDCF8C3619F4689437F8D8CFD5
:103480008836B1F2982F9F7D95549330E0F08336C3
:10349000A1F18337C1F1833509F063C02801F2E05F
:1034A0004F0E511CF801C080D180692D70E036FCB0
:1034B00002C06FEF7FEFC6010E94A61B4C0168940B
:1034C00037F882010AC00C5F1F4FFFE3F98388249D
:1034D0008394912C6501E89437F833FE2DC0522C6B
:1034E0008114910471F5552009F468CFB70180E289
:1034F00090E00E94BC1B5A94F6CFF801808189832A
:103500000E5F1F4FE4CF2801F2E04F0E511CF8016F
:10351000C080D180692D70E036FC02C06FEF7FEF74
:10352000C6010E94B11B4C018201D5CFB70180E2D8
:1035300090E00E94BC1B2A942814190409F0B0F7EB
:10354000CECFF60137FC859137FE81916F01B7012F
:1035500090E00E94BC1B51105A94F1E08F1A910820
:10356000BFCF843619F0893609F077C0F80137FEED
:103570006BC060817181828193810C5F1F4FF32D3D
:10358000FF763F2E97FF09C09095809570956195C5
:103590007F4F8F4F9F4F689437F82AE030E0A501A6
:1035A0000E94EC1BC82ECA188C2C432C36FE0CC073
:1035B000E89440F8C91440F434FE05C032FC03C05E
:1035C000F32DFE7E4F2E892C44FE95C0FE01EC0D9E
:1035D000F11D8081803309F087C0242D297E422E81
:1035E000842D8870582E43FC95C040FE8FC09C2CC3
:1035F000821418F42C0C922C981844FE91C0B70138
:1036000080E390E00E94BC1B42FE09C088E790E086
:1036100041FE02C088E590E0B7010E94BC1BC914BE
:1036200008F48AC0CA94D12C9FEFC91AD90ACA0CCF
:10363000DB1CF60182916F01B70190E00E94BC1B78
:10364000AC14BD04B1F74FCF60817181072E000C1F
:10365000880B990B0E5F1F4F92CFD32CE894D4F8B0
:103660002AE030E0853739F1232D297FD22E8F369D
:1036700001F148F48835A9F0F701868197812B96EE
:10368000E2E10C944D14803749F08837A9F7D4FE55
:1036900002C06894D2F820E130E00DC06894D4F8FC
:1036A000F6CF34FE03C0822F8660D82E20E132E0B0
:1036B00002C028E030E0F801D7FE0FC060817181C0
:1036C000828193810C5F1F4FA5010E94EC1BC82EC5
:1036D000CA183D2CE89437F867CF6081718190E07B
:1036E00080E00E5F1F4FF0CF42FC02C0839478CF82
:1036F0008394839475CF842D867809F471CFF6CFA7
:10370000B70180E290E00E94BC1B83948214C0F356
:10371000512C73CF522C5818821408F46ECFF8CF66
:10372000842D867809F47BCF8BE241FE80E247FC52
:103730008DE2B70190E071CFB70180E390E00E9485
:10374000BC1B9A946CCF8FEF9FEF99CFFC01059033
:10375000615070400110D8F7809590958E0F9F1F93
:103760000895FC016150704001900110D8F78095D8
:1037700090958E0F9F1F08950F931F93CF93DF9304
:10378000182F092FEB018B8181FD09C01FEF0FEF6F
:10379000812F902FDF91CF911F910F91089582FF7C
:1037A00014C02E813F818C819D81281739073CF4FC
:1037B000E881F981CF0101969983888310838E81F6
:1037C0009F8101969F838E83E3CFE885F985812FC2
:1037D0000995892BA1F3DACFFA01AA27283051F1F4
:1037E000203181F1E8946F936E7F6E5F7F4F8F4F32
:1037F0009F4FAF4FB1E03ED0B4E03CD0670F781F91
:10380000891F9A1FA11D680F791F8A1F911DA11D75
:103810006A0F711D811D911DA11D20D009F46894AE
:103820003F912AE0269F11243019305D3193DEF656
:10383000CF010895462F4770405D4193B3E00FD00C
:10384000C9F7F6CF462F4F70405D4A3318F0495DF7
:1038500031FD4052419302D0A9F7EACFB4E0A695DA
:103860009795879577956795BA95C9F700976105FC
:10387000710508959B01AC010A2E06945795479552
:1038800037952795BA95C9F7620F731F841F951F47
:08389000A01D0895F894FFCF7C
:10389800A8050000C80580000000A0400000C04046
:1038A800000040410000504100009041000090415C
:1038B80000009041000000007201D200FF00BF012B
:1038C80030010E0122010D0A006E616E00696E66FC
:1038D800006F76660020504D0020414D0025322EA5
:1038E800326400302564002D2D2D2D2D2D2D2D2DEC
:1038F8002D2D2D2D2D2D2D2D2D2D2D2D2D2D2D2DF0
:103908002D2D2D2D2D2D2D2D2D2D2D2D2D2D2D2DDF
:103918002D2D2D2D2D2D2D2D2D2D0053656C6563F1
:10392800742043616C63756C6174696F6E204D65BA
:1039380074686F6420666F722046616A7220616ED7
:103948006420497368612050726179657273002A36
:103958002D2D2D2D2D2D2D2D2D2D2D2D2D2D2D2D8F
:103968002D2D2D2D2D2D2D2D2D2D2D2D2D2D2D2D7F
:103978002D2D2D2D2D2D2D2D2D2D2D2D2D2D2D2D6F
:103988002D2D0030203D204D75736C696D20576FCB
:10399800726C64204C6561677565202020202020AA
:1039A800202020202020202020202020202020200F
:1039B8002020202020200031203D20556E6976658A
:1039C8007273697479206F662049736C616D6963DD
:1039D80020536369656E6365732C204B6172616364
:1039E800686920202020202020200032203D204906
:1039F800736C616D696320536F6369657479206FB7
:103A080066204E6F72746820416D6572696361202B
:103A18002849534E412920202020202020200033EF
:103A2800203D20556D6D20616C2D517572612055BA
:103A38006E69766572736974792C204D616B6B6160
:103A48006820202020202020202020202020202026
:103A580020200034203D20456779707469616E200C
:103A680047656E6572616C20417574686F72697420
:103A780079206F6620537572766579202020202082
:103A88002020202020200035203D20536869612017
:103A98004974686E61204173686172692C204C65B5
:103AA800766120526573656172636820496E73742C
:103AB800697475746520202020200036203D204937
:103AC8006E73746974757465206F662047656F70CE
:103AD8006879736963732C20556E697665727369AA
:103AE8007479206F662054656872616E20200049E1
:103AF8006E76616C696420496E707574204F7074BD
:103B0800696F6E0053656C656374204A75726973DA
:103B1800746963204D6574686F6420666F72204114
:103B28007372205072617965720030203D20496DB2
:103B3800616D732053686166692C2048616E62610B
:103B48006C6920616E64204D616C696B692020008E
:103B580031203D20496D616D2048616E66692020E5
:103B6800202020202020202020202020202020204D
:103B780020202020200046616A720053756E726909
:103B88007365004468756872004173720053756EFE
:103B9800736574004D616768726962004973686192
:103BA80000507265737320616E79206B657920749B
:103BB8006F20636F6E74696E7565202E202E202E1F
:103BC8000044617465202020202020202020203AF5
:103BD800200054696D65205A6F6E652020202020D2
:103BE8003A20004C61746974756465202020202097
:103BF800203A20004C6F6E67697475646520202038
:063C080020203A2000001C
:00000001FF
